:020000040800F2
:10000000C80F002049010008D5360008652D0008FA
:100010005936000843090008794400080000000030
:10002000000000000000000000000000293C000863
:100030004509000800000000313B0008B53C0008FD
:100040006301000863010008630100086301000800
:1000500063010008630100086301000863010008F0
:1000600063010008630100086301000863010008E0
:1000700063010008630100086301000863010008D0
:1000800063010008630100086301000863010008C0
:1000900063010008630100086301000863010008B0
:1000A00063010008630100086301000863010008A0
:1000B000193D0008253D0008313D00086301000896
:1000C000630100086301000863010008353B000874
:1000D00063010008614400086D44000863010008E2
:1000E000630100086301000863010008613D000826
:1000F0006301000863010008630100086301000850
:1001000063010008630100083D3D00086301000829
:100110006301000863010008493D0008553D0008DF
:10012000630100086301000863010008630100081F
:10013000DFF810D000F0D2FB00480047494E00081D
:10014000AFF30080C80F00200648804706480047EC
:10015000FEE7FEE7FEE7FEE7FEE7FEE7FEE7FEE777
:10016000FEE7FEE7173D000831010008202A04DB06
:10017000203A21FA02F00021704721FA02F3D04020
:10018000C2F120029140084319467047D2B201E003
:1001900000F8012B491EFBD270470022F6E710B58C
:1001A00013460A4604461946FFF7F0FF204610BDE5
:1001B000F0B480EA0102D40F4200B2EB410F02D248
:1001C0000246084611464A0042D0C30DDDB2C1F3D3
:1001D000C752AD1A202D35DAC1F3160141F40002E1
:1001E00004B15242C5F1200602FA06F12A41104438
:1001F000B3EBD05F23D0C4B1012DA0EBC35009DC19
:10020000F0BC4FF0004202EAC352DBB200F500003E
:1002100000F092B9400000F1807000EBC350A0F1F3
:10022000807040EAD170490009E0490841EAC07194
:10023000A0EBC35000F50000400800EBC350F0BC39
:1002400000F071B96142012202EB4101001BF6E7A7
:10025000F0BC704781F00041AAE780F00040A7E7BA
:1002600080EA010210B502F00043400022D04A00AB
:100270001FD0010E01EB1261C0F35600C2F356020B
:1002800040F4000042F40002A0FB022000047F3989
:10029000140400D0401C50EA124001D44000491E12
:1002A000C2B20C0604EBD010401C4008802A02D0D9
:1002B00003E0002010BD20F00100002900DA00203A
:1002C000184310BD30B480EA010202F0004530F05E
:1002D000004221F0004013D090B1C30DD40DC2F301
:1002E0001601C0F31600E41A41F4000140F40002C4
:1002F0007D34914201D3641C00E04900002C02DAF5
:1003000030BC002070474FF400000023914201D31D
:10031000891A034340084FEA4101F7D151B1914294
:1003200002D14FF0004105E002D24FF0010101E09F
:100330006FF0010103EBC450284430BC00F0F3B867
:10034000420005D0C0F3C7525242914201DC002066
:10035000704700EBC15070472DE9FE4F81EA03045E
:1003600004F0004421F0004100944FF0000B23F012
:10037000004350EA01045ED052EA03045BD0C3F3A9
:100380000A54C1F30A552C44A4F2F3340194A0FB9F
:100390000254C1F3130141F48011C3F3130343F476
:1003A000801301FB024400FB034E840A970A44EACF
:1003B000815447EA8357A4FB076802958D0A05FB21
:1003C00007854FEA932C04FB0C542705029D4FEA46
:1003D000065847EA1637B5EB08056EEB070C870E93
:1003E000920E47EA811742EA8312A7FB0201B6EB9D
:1003F0000B0164EB00042B0D43EA0C335E1844EB55
:100400001C50DA465146E7FB0201C5F313044FEADC
:100410000B3343EA14534FEA0432019C43EA0603C8
:10042000A4F10C040294009CCDE900B400F0C1F8E2
:1004300003B0BDE8F08F00200146F9E796230022C3
:10044000114600F079B820F00040C10DC0F316004D
:1004500040F400007F2901DA00207047962903DC70
:10046000C1F19601C8407047963988407047000036
:10047000002801DBC0F10040002901DBC1F100418F
:1004800081427047002801DBC0F10040002901DBF8
:10049000C1F100418842704730B50B46014600204B
:1004A0002022012409E021FA02F59D4205D303FA36
:1004B00002F5491B04FA02F52844151EA2F10102B7
:1004C000F1DC30BD2DE9F05F0546002092469B46E9
:1004D00088460646814640241BE02846414647465A
:1004E0002246FFF743FE53465A46C01A914110D3A5
:1004F00011461846224600F003FA2D1A67EB010850
:100500004F4622460120002100F0FAF917EB0009BE
:100510004E41201EA4F10104DFDC484631462A4644
:100520004346BDE8F09F0029A8BF7047401C490022
:1005300008BF20F00100704710B4B0FA80FC00FA48
:100540000CF050EA010404BF10BC704749B1CCF173
:10055000200421FA04F411FA0CF118BF01212143FF
:100560000843A3EB0C01CB1D4FEA00614FEA1020BA
:1005700042BF002010BC704700EBC350104400295C
:10058000A4BF10BC7047401C490008BF20F0010008
:1005900010BC704710B5141E73F1000408DA401C3B
:1005A00041F1000192185B411A4301D120F0010092
:1005B00010BD2DE9F04D92469B4611B1B1FA81F282
:1005C00002E0B0FA80F22032904600F099F9044639
:1005D0000F4640EA0A0041EA0B0153465A460843D7
:1005E00013D0114653EA010019D0C8F14002504619
:1005F000FFF7BCFD05460E4650465946424600F000
:100600007FF9084305D0012004E020463946BDE8C3
:10061000F08D0020054346EAE0762C4337430A98E4
:100620006305E40AA0EB08000022FD0A44EA4754EF
:100630000A3002D500200146E9E701051019694199
:10064000DDE9084500196941BDE8F04DA2E72DE953
:10065000FE4F804681EA0300C00F0C46009021F057
:10066000004123F00045B8EB0200A94105D2404605
:10067000214690461C460B46024623F0004010439C
:1006800047D0270DC7F30A00C3F30A510290401A5E
:10069000019040286BDAC3F3130040F4801B0098EC
:1006A000924620B10023D2EB030A63EB0B0B0198B7
:1006B0005946C0F14002504600F022F906460D4668
:1006C00050465946019A00F02AF910EB08006141A2
:1006D000002487EA115284EAE7731A4340D0009A53
:1006E00062B3019A012A4FEA075215DC001B61EB45
:1006F00002014FF0004202EA0752CDE90042001C1D
:1007000041F5801132462B46FFF753FF03B0BDE899
:10071000F08F40462146F9E7001B61EB0201001C07
:1007200041F5801300185B412018A2F5001747EB34
:10073000030140EAD570B6196D4111E06D084FEA2A
:10074000360645EAC0754FEA0752001B61EB02010D
:10075000001C41F5801149084FEA30000019514151
:1007600032462B4603B0BDE8F04FFFF713BF0098A9
:10077000012240000023D0EB020263EBE0730098FB
:1007800021464FEAE074B8EB000061EB0401E9E7B1
:1007900083F000435BE781F0004158E72DE9F04D1D
:1007A00081EA030404F0004B21F0004514464FF0A9
:1007B000000A23F0004150EA050220D054EA010269
:1007C0001DD0C5F30A570246C5F31303C1F3130046
:1007D000C1F30A5640F4801543F48013A7EB0608D2
:1007E000101BD64608F2FD3873EB050002D308F162
:1007F000010801E092185B41B8F1000F03DA002014
:100800000146BDE8F08D00204FF480110646844675
:100810000EE0171B73EB050705D3121B63EB0503F3
:1008200006434CEA010C49084FEA300092185B413C
:1008300050EA0107EDD152EA030012D082EA040027
:1008400083EA0501084305D0101BAB4106D2012203
:10085000002306E000224FF0004302E06FF00102A7
:1008600053101AEB06004CEB085110EB0A0041EB59
:100870000B01BDE8F04DFFF78DBEC1F30A52C1F385
:10088000130140F2FF3341F480119A4202DA002052
:100890000146704740F233439A42A2F2334202DCEF
:1008A0005242FFF763BC00F02BB8000030B5041EC5
:1008B00071F1000404DB4FF00044404264EB01019D
:1008C000141E73F1000405DB1C464FF00043524236
:1008D00063EB0403994208BF904230BD064C074DBC
:1008E00006E0E06840F0010394E807009847103400
:1008F000AC42F6D3FFF720FC705B0008905B000869
:10090000202A04DB203A00FA02F1002070479140CF
:10091000C2F1200320FA03F3194390407047202AC4
:1009200006DBCB17203A41FA02F043EAE07306E017
:1009300041FA02F3D040C2F1200291400843194627
:100940007047FEE7704772B6FEE700002DE9F047FA
:1009500000680025DFF8A880DFF8A8902A4C2B4E0D
:10096000B0F1804F14D02A49884221D12948076824
:10097000786A80B2FFF762FD4146FFF7A3FC494663
:10098000FFF7A0FC60607D62C6F8E800BDE8F08774
:1009900021480768786A80B2FFF750FD4146FFF7AB
:1009A00091FC4946FFF78EFC20607D623067EDE7E1
:1009B0001A49884210D11A480768786A80B2FFF74E
:1009C0003DFD4146FFF77EFC4946FFF77BFCA060FA
:1009D0007D62C6F86001D9E712498842D6D1124833
:1009E0000768786A80B2FFF729FD4146FFF76AFC85
:1009F0004946FFF767FCE0607D62C6F8D801C5E7AD
:100A0000008077440000C842B8030020E4090020B9
:100A10000004004078010020300100200008004060
:100A2000C001002000340140E002002010B590F821
:100A300021100022022905D00421816380F82020A2
:100A4000012010BD01680B6823F00E030B600168E4
:100A50000B6823F001030B6090F84030C46B012158
:100A600001FA03F3636080F8211080F8202010461B
:100A700010BD00002DE9F05F90F82110002402293C
:100A800003D004218163012485E001680A6822F013
:100A90000E020A6001680A6822F001020A603F4EF5
:100AA0003E4FB215DFF8F4C0DFF8F090DFF8ECA0AD
:100AB000DFF8E8B0DFF8E4E00168783F13011502E1
:100AC000ACF1640CA9F15009AAF13C0AABF1280B76
:100AD000AEF1140E4FF48018B14227D9B9420ED0AE
:100AE000614512D049451DD0514518D0594518D0FF
:100AF000714501D1424615E0294EB14201D1012292
:100B000010E0274E1436B14201D110220AE0244EE3
:100B10002836B14206D0224A3C32914201D11A46CF
:100B200000E02A461E49091F0A602BE0B94213D093
:100B3000614517D0494522D051451DD059451DD09A
:100B4000714501D142461AE0B14202D14FF08072A4
:100B500015E0134EB14201D1012210E0104E1436BF
:100B6000B14201D110220AE00D4E2836B14206D022
:100B70000B4A3C32914201D11A4600E02A4607490D
:100B800080394A60012180F82110002180F820106E
:100B9000416B01B188472046BDE8F09F80000240CC
:100BA0000804024070B5044600F014F90546601CC4
:100BB00002D004480078044400F00CF9401BA04225
:100BC000FAD370BD000000202DE9F84FDFF8C8917E
:100BD0000024A9F1040B23460F2709F1040AABF105
:100BE000040ED1E00125A54006EA0502AA4276D10D
:100BF000DFF8A8C14E68A6EB0C0866452BD00DDCCB
:100C0000032E34D005DC36B3012E19D0022E2FD19D
:100C10001BE0112E16D0122E2AD119E0B8F5881F2C
:100C200019D006DCB8F5803F15D0B8F5801F1FD16C
:100C300011E0B8F5001F0ED0B8F5041F18D10AE076
:100C4000CB6815E0CB681B1D12E0CB6808330FE0C2
:100C5000CB680C330CE08B682BB1012B4FF00803F1
:100C600003D0456104E0042302E0056100E00023B5
:100C7000FF2A01D8064601E000F104064FEA840588
:100C800001D9A5F12005D6F8008007FA05FC28EA6D
:100C90000C0803FA05F548EA0508C6F800804D6817
:100CA000ED0070D53E4DAE6946F00106AE61AD690E
:100CB00024F0030605F0010500953A4D06EB050CFE
:100CC000DCF80850A607360F07FA06F825EA0805EB
:100CD000DFF8D480404503D14FF0000825E052E012
:100CE000DFF8C880404502D14FF001081DE0DFF871
:100CF000C080404502D14FF0020816E0DFF8B48012
:100D0000404502D14FF003080FE0DFF8AC804045CA
:100D100002D14FF0040808E0DFF8A080404502D17E
:100D20004FF0050801E04FF0060808FA06F848EA17
:100D30000508CCF808804D68D9F80060ED024D46F2
:100D400001D5164300E096432E604D68DAF8006046
:100D5000AD02554601D5164300E096432E604D681E
:100D6000DBF80060AD035D4601D5164300E0964315
:100D70002E604D68DEF80060ED03754601D5164320
:100D800000E096432E60641C0A681646E2407FF439
:100D900029AFBDE8F88F00000804014000001110E1
:100DA000001002400000014000080140000C01401A
:100DB000001001400014014000180140001C0140D7
:100DC0008068084000D0012070470AB10161704777
:100DD0000904FBE70148806870470000000000201C
:100DE00070B5040025D094F83D00002520B984F8A2
:100DF0003C50204600F04EF9242084F83D00206845
:100E0000016821F0010101602068016841F400419E
:100E100001602068016821F40041016000F0ACFA33
:100E20004D4A6168914201D84C4900E04C498842E2
:100E300001D2012070BD4B492368B0FBF1F15E681F
:100E400026F03F060E435E606368934206D94FF476
:100E5000967359434FF47A73B1FBF3F12368491C3D
:100E60001E6A26F03F06314319626168914210D82C
:100E70004900401EB0FBF1F2521CC2F30B02042ADF
:100E800001D2042022E0B0FBF1F0401CC0F30B00C3
:100E90001CE0A268F2B301EBC10303EB0116431E91
:100EA000B3FBF6F35B1C43F480431B0549D092B3BC
:100EB00001EBC10202EB0111401EB0FBF1F0401C3E
:100EC000C0F30B0040F4804040F400402168CA6940
:100ED0004CF6FF739A431043C861D4E907100143ED
:100EE0002068026822F0C00211430160D4E90301C6
:100EF00001432068826848F2FF339A4311438160BE
:100F0000D4E9050108432168CA6822F0FF021043B2
:100F1000C86001E00EE016E02068016841F00101C0
:100F200001602564202084F83D00256384F83E504C
:100F3000002070BD01EB4106431EB3FBF6F35B1CC2
:100F4000B3E70120C2E701EB4101401EB0FBF1F025
:100F5000401CC0F30B00B7E7A086010080841E0090
:100F600000093D0040420F002DE9F84F1F46904612
:100F70008A460446DDF82890FFF72CFF054694F8D2
:100F80003D0020287FD119230122404920460095A9
:100F900001F07AFF002876D194F83C00012872D045
:100FA000012084F83C0020680168C90703D101686A
:100FB00041F0010101602068016821F400610160D5
:100FC000212084F83D00102084F83E00002626648D
:100FD000C4F824806785608D20852D48E0622B460B
:100FE0004A465146204601F0D5FE90B92068416935
:100FF0008069009036E02A464946204601F0EAFF23
:1010000050B1206C042804D12068016841F40071BB
:1010100001600120BDE8F88F606A216800780861EE
:10102000606A401C6062618D491E6185218D491E88
:1010300089B2218522685369DB435B070BD451B128
:1010400000781061606A401C6062608D401E60859F
:10105000208D401E20852A464946204601F0E8FEA4
:101060000028CED1208D0028C5D154F83D0B016851
:1010700041F400710160202004F81E09E6776677CC
:101080000020C7E7FFE70220C4E7000002001000CD
:101090000000FFFF10B586B0002100910191029180
:1010A000039100680F4988421AD10F4CA06940F0A3
:1010B0000800A061A069694600F008000490C02003
:1010C000009012200190032003900848FFF77CFD58
:1010D000E06940F40010E061E06900F40010049061
:1010E00006B010BD0054004000100240000C01404A
:1010F0001CB502238DF804000A208DF8051000901D
:1011000001AA78210148FFF72FFF1CBD3C000020F9
:101110000248816802781144816070470000002015
:10112000074810B5016841F010010160032000F08C
:1011300075F80F2000F006F800F024F8002010BD2C
:101140000020024070B50D4D04464FF47A712878A6
:10115000B1FBF0F00A490968B1FBF0F000F0E5FCE2
:1011600048B9102C07D200222146501E00F036F854
:1011700000206C6070BD012070BD000000000020E8
:10118000340000200C4808B5816941F001018161FB
:10119000816901F001010091C16941F08051C16193
:1011A000C06900F0805000900448416821F0E0617F
:1011B00041F00071416008BD001002400000014094
:1011C000002809DB00F01F02012191404009800046
:1011D00000F1E020C0F8001170470000F0B40E4BA1
:1011E0001B680C46C3F30223C3F10705042D00D985
:1011F0000425191D072901D2002300E0DB1E01266A
:1012000006FA05F1491E214099409E40761E16407F
:101210003143F0BC03F04AB90CED00E0064900F0A0
:10122000070208684FF6FF03184040EA0220034A0D
:1012300010430860704700000CED00E00000FA0564
:101240002DE9F0470F46050061D0434E306800F0AD
:101250000700B84209D2306820F0070038433060F8
:10126000306800F00700B84251D128683B4C810734
:1012700012D5400703D5606840F4E06060602878CC
:10128000000703D5606840F4605060606068A9683A
:1012900020F0F000084360602878C00728D0686814
:1012A000012810D02168022810D0890700292EDAE1
:1012B000616821F0030101436160FFF78BFD804607
:1012C00041F288390DE021688903EFE78901EDE7F4
:1012D000FFF780FDA0EB0801494502D90320BDE8D6
:1012E000F0876068696800F00C00B0EB810FEFD107
:1012F000306800F00700B8420BD9306820F00700D2
:1013000038433060306800F00700B84201D0012057
:10131000E5E72878400705D56068E96820F4E060D3
:10132000084360602878000706D56068296920F4C2
:10133000605040EAC100606000F03EF86168084A11
:10134000C1F30311515CC8400649086006480068B3
:10135000FFF7F8FE0020C2E7002002400010024024
:10136000565B00083400002004000020014800689B
:1013700070470000340000200448054900684968AF
:10138000044AC1F30221515CC84070473400002078
:1013900000100240665B000804480549006849687F
:1013A000044AC1F3C221515CC84070473400002098
:1013B00000100240665B00080E4A51680E4801F0BA
:1013C0000C03042B11D0082B0FD10C48C1F383431D
:1013D000C903C05C0AD55168084AC1F34041921E56
:1013E000515C054A5043B0FBF1F070470449484353
:1013F000704700000010024000127A00CE52000830
:1014000000093D002DE9F84F040070D02078C04D50
:10141000C00749D06868C0F38100012807D0686818
:10142000C0F38100022809D16868C00306D5286886
:10143000800339D560680028E7D035E06068B0F5F2
:10144000803F0BD010B1B0F5A02F11D0286820F448
:1014500080302860286820F4802002E0286840F46A
:1014600080302860606890B1FFF7B4FC06460AE05F
:10147000286840F480202860F0E700BFFFF7AAFC4E
:10148000801B642873D828688003F7D50CE0FFF729
:10149000A1FC064605E000BFFFF79CFC801B64280A
:1014A000F0D828688003F7D420789A4E80074FF050
:1014B00001094FF0000839D5686810F00C0F07D00B
:1014C0006868C0F38100022809D16868C00306D4A7
:1014D0002868800714D52069012808D110E0206908
:1014E000B0B1C6F80090FFF775FC074605E00AE1C9
:1014F000FFF770FCC01B0228C4D828688007F7D506
:101500002868616920F0F80040EAC10028600DE019
:10151000C6F80080FFF75EFC074604E0FFF75AFCC0
:10152000C01B022823D828688007F7D4207800073A
:101530002CD57948A169D9B1C0F80090FFF74AFCD1
:10154000074604E0FFF746FCC01B02280FD8686A74
:101550008007F7D571484FF4FA510068B0FBF1F0FD
:10156000009000BF0098411E0091FAD20EE080E08A
:10157000C0F80080FFF72EFC074604E0FFF72AFCC6
:10158000C01B022875D8686A8007F7D42078400706
:1015900060D5E8690027C00008D4E86940F08050B1
:1015A000E861E869012700F0805000905C4801681C
:1015B000C90513D40168834641F480710160FFF7C7
:1015C00009FC824606E000BFFFF704FCA0EB0A001E
:1015D00064284ED8DBF80000C005F5D5E068012886
:1015E0000AD008B1052813D0286A20F0010028622B
:1015F000286A20F0040002E0286A40F00100286216
:10160000E06841F2883B98B1FFF7E4FB82460BE0CB
:10161000286A40F004002862EEE700BFFFF7DAFB1B
:10162000A0EB0A0159455AD8286A8007F6D50CE084
:10163000FFF7D0FB824605E0FFF7CCFBA0EB0A01E9
:1016400059454CD8286A8007F6D41FB1E86920F0C4
:101650008050E861E06988B36968C1F381010229BB
:1016600044D00228C6F8608004D0FFF7B3FB0446DC
:1016700038E034E0FFF7AEFB074604E0FFF7AAFBD3
:10168000C01B02282BD828688001F7D4206AB0F547
:10169000803F05D16868A16820F400300843686085
:1016A000D4E908010843696821F4741108436860AB
:1016B000C6F86090FFF78EFB044606E025E000BF09
:1016C000FFF788FB001B022809D828688001F7D59E
:1016D0001BE000BFFFF77EFB001B022802D903209E
:1016E000BDE8F88F28688001F4D40EE00128F7D017
:1016F0006868226A00F48031914204D1616A00F482
:101700007010884201D00120EAE70020E8E70000DD
:101710000010024000004242800442423400002097
:10172000007000407047000038B504460068426809
:101730008168C9434B0606D5CB0704D1D3435B066A
:1017400001D4216C05E08B0708D4D3431B0605D4D4
:10175000616C01B02046BDE8304008478B0601D5DA
:101760004B0646D4D3439B0643D44B060AD494F885
:101770005130032B3ED0636D43F004036365C368AF
:1017800083680093890609D4616D41F001016165A8
:1017900081680091016821F040010160606D0028BE
:1017A00027D02068416821F0E0014160012084F8E1
:1017B0005100900722D02068416821F00301416068
:1017C000104DE06C40B14563E06CFFF753F918B180
:1017D000606D40F040006065A06C002809D0456352
:1017E000A06CFFF747F9002803D0606D40F040007F
:1017F000606538BDC1688068009038BD2046FFF73D
:1018000091FF38BD413B000870B5040009D0606A03
:10181000002540B125616561A56294F8510040B191
:101820000CE0012070BD6068B0F5827FF4D0E56106
:10183000F2E784F85050204600F040F8022084F887
:1018400051002068016821F040010160A0882189D1
:1018500000F4827001F404410843A18901F400619D
:101860000843217C01F002010843217D01F00101C0
:101870000843218B01F400710843217F01F03801F6
:10188000084394F8201001F080010843218D01F4F1
:101890000051084321680860A069042101EA104052
:1018A000216848602068C16921F40061C1616565F3
:1018B000012084F85100002070BD000030B585B0D3
:1018C000002400940194029403940068184988420B
:1018D0002BD11848816941F480518161816901F4FB
:1018E00080510491816941F0040181618069124D48
:1018F00000F004000490A02000900220019003203A
:10190000039069462846FFF75FF94020CDE90004BF
:10191000694628460294FFF757F900221146232012
:10192000FFF75CFC2320FFF74BFC05B030BD000047
:101930000030014000100240000801402DE9FF4F37
:1019400081B0044690F8500000260E9F1D46934635
:101950004FF0010901280FD04FF0010A84F850A080
:10196000FFF738FA804694F85100616801280DD0DD
:10197000B1F5827F08D103E0022005B0BDE8F08F09
:10198000A16809B9042801D00226C9E002980028FC
:1019900065D0BBF1000FFBD0002DF9D094F85100B9
:1019A000042802D0052084F8510000206065C4F8A6
:1019B00038B0E587A58702992163E586A58620646E
:1019C000606420680168490603D4016841F0400161
:1019D0000160E068B0F5006F606803D0F0B3012DDE
:1019E00047D081E008B1012D3CD1206B21680088EF
:1019F000C860206B801C2063E08E401EE08631E0D2
:101A00002068816889070FD5E18E69B1B9F1010FAE
:101A10000AD1216B0988C160206B801C2063E08E95
:101A2000401EE0864FF0000920688168C9070CD08D
:101A3000E18F51B1C068A16B0880A06B801CA063CE
:101A4000E08F401EE0874FF00109FFF7C3F9A0EBDC
:101A50000800B84206D3781C04D001E009E05BE03E
:101A600003265BE0E08E0028CAD1E08F0028C7D1B2
:101A700040E0206B216800780873206B401C2063D5
:101A8000E08E401EE0862FE02068816889070FD530
:101A9000E18E69B1B9F1010F0AD1216B09780173A7
:101AA000206B401C2063E08E401EE0864FF0000952
:101AB00020688168C9070CD0E18F51B1C068A16B63
:101AC0000870A06B401CA063E08F401EE0874FF0C1
:101AD0000109FFF77FF9A0EB0800B84202D3781C98
:101AE00002D0BAE7002FB8D0E08E0028CCD1E08F2A
:101AF0000028C9D142463946204602F029F818B1DB
:101B00000126202060650BE0A06818B92068C16834
:101B100080680090606D08B1012601E084F851A052
:101B2000002084F85000304627E710B5401EB0F181
:101B3000807F01D3012010BD4FF0E02460610F21B0
:101B4000601702F0B3FC0020A06107202061002094
:101B500010BD7047704710B590F83C20012A22D084
:101B6000012280F83C20CA688C6822F4407222432B
:101B70004C6822F4806222430C6822F40062224303
:101B80000C6922F4805222434C6922F40052224311
:101B9000C969002322F480420A4301684A6480F83C
:101BA0003C30002010BD022010BD000070B590F840
:101BB0003C20012A2CD0012480F83C40022280F8ED
:101BC0003D2003685A689D6822F070060A68324317
:101BD0005A60104B02689A420ED00F4B9A420BD0BB
:101BE000B2F1804F08D00D4B9A4205D00C4B9A426F
:101BF00002D00C4B9A4204D1496825F08003194366
:101C0000916080F83D40002180F83C10084670BD8E
:101C1000022070BD002C014000340140000400404F
:101C200000080040000C004010B5040003D094F8F8
:101C30003D0010B107E0012010BD002084F83C00F9
:101C4000204600F01FF8022084F83D00211D206886
:101C500002F08CF8012084F8460084F83E0084F8F5
:101C60003F0084F8400084F8410084F8420084F882
:101C7000430084F8440084F8450084F83D000020C7
:101C800010BD000000B585B00021009101910291C6
:101C90000391264A01682648914220D1816941F486
:101CA00000618161816901F400610491816941F001
:101CB000400181618069694600F040000490501540
:101CC00000901C48FEF780FF1B48416821F0C001CE
:101CD00041F0E06141F0C001416005B000BD174A2C
:101CE00091420ED1C16941F01001C161C069002269
:101CF00000F01000049011463620FFF76FFA3620EE
:101D000010E00F4A9142E8D1C16941F02001C16160
:101D1000C069002200F02000049011463720FFF730
:101D20005DFA3720FFF74CFAD7E70000002C01409E
:101D30000010024000180140000001400010004067
:101D40000014004090F83D10012901D00120704797
:101D5000022180F83D100168CA6842F00102CA60A1
:101D600000680E4988420ED00D4988420BD0B0F170
:101D7000804F08D00B49884205D00B49884202D0D9
:101D80000A49884204D1816801F00701062903D07D
:101D9000016841F00101016000207047002C014002
:101DA000003401400004004000080040000C0040E6
:101DB00070B5044690F83C000025012817D0012694
:101DC00084F83C60022084F83D002068826822F09C
:101DD000770222F47F4282600868502838D00DDCF8
:101DE00020284FD005DC90B3102811D14AE0022002
:101DF00070BD302846D040280AD13BE060282FD063
:101E000070280DD0B0F5805F03D0B0F5005F12D020
:101E1000012584F83D60002084F83C00284670BD10
:101E2000CB68D1E90121206801F0F3FF20688168C7
:101E300041F0770109E0CB68D1E90121206801F088
:101E4000E8FF2068816841F480418160E1E719E0A2
:101E5000CA684968206802F0B1F85021206806E09D
:101E6000CA684968206802F0F1F86021206801F032
:101E7000DAFFCEE7CA684968206802F09FF840217F
:101E80002068F4E7226801461046F0E72DE9F041AA
:101E90000D46040003D094F83D0018B108E001207D
:101EA000BDE8F081002084F83C00204600F040F8B6
:101EB000022084F83D002068816844F207029143C3
:101EC0008160211D206801F051FF226890689169AE
:101ED000166A2B68AF69034340F20330814341EA3D
:101EE0000721A868EF6908434FF6FC418843E96879
:101EF00040EA0720014328692F6A000140EA0730C1
:101F0000084369686D6926F0220646EA05152943EB
:101F100093602268906154F8460B0162012004F836
:101F20001F09E0752076E0762077A0750020B7E7DE
:101F300070B586B00025009501950295039500685F
:101F40005749584E584CB0F1804F2BD0574A9042C9
:101F50005ED1C86940F00200C861C86900F00200A3
:101F60000490886940F0080088618869694600F03B
:101F700008000490302000903046FEF725FE60688F
:101F800020F4406040F0E06040F4006060600022B7
:101F900001211D20FFF722F95FF01D00FFF710F966
:101FA00006B070BDC86940F00100C861C86900F0A2
:101FB00001000490886940F004008861886900F09D
:101FC00004000490886940F00800886188696946C7
:101FD00000F0080004904FF4004000903448FEF7F1
:101FE000F3FD0820CDE90005694630460295FEF76D
:101FF000EBFD606820F4407040F0E06040F48070D9
:102000006060002201211C20FFF7E8F81C20C5E7D2
:10201000284A904223D1C86940F00400C861C869C9
:1020200000F004000490886940F02000886188690D
:10203000694600F0200004904FF4405000901E4884
:10204000FEF7C2FD606840F0E06040F480506060E0
:10205000002201211E20FFF7C1F81E209EE7174A2B
:1020600090429DD1886940F400508861886900F4ED
:1020700000500490886940F01000886188696946C2
:1020800000F010000490C02000900D48FEF79CFD69
:10209000002201212B20FFF7A1F82B207EE7000072
:1020A00000100240000C014000000140000400400C
:1020B00000080140000800400014014000340140C5
:1020C0000010014070B590F83E60044690F83F5013
:1020D00090F8423090F84320022021B104290ED01C
:1020E000012E1BD114E0012E18D1012B16D184F83A
:1020F0003E0084F8420001220021206820E0012DEA
:102100000CD1012A0AD184F83F0084F8430014E07E
:10211000012D03D1012B01D1012A01D0012070BD75
:1021200084F83E0084F83F0084F8420084F84300BD
:1021300001220021206801F05FFE012204212068B5
:1021400001F05AFE2068016841F0010101600020A1
:1021500070BD000070B500681349884212D1134C5D
:10216000134D207801280ED002280BD100211148F0
:1021700000F098FB686000210E4800F0DDF8207840
:10218000401C207070BD00210A4800F08BFB2860C5
:10219000084801680A6A22F00A020A620068016AB5
:1021A00041F002010162EAE7002C0140100000202A
:1021B000C8030020E80000202DE9F041054690F812
:1021C0003C0000260C46012810D0012085F83C0078
:1021D00072B1042A1CD0082A2CD00C2A50D0012617
:1021E000002085F83C003046BDE8F0810220FBE786
:1021F000D4E90012E368286801F0F2FE28688169DA
:1022000021F00C01816128688169A26811430FE007
:10221000D4E90012E368286801F02AFF2868816980
:1022200021F44061816128688169A26841EA022144
:102230008161D5E72868D4E9002C277B036A016A0D
:1022400021F480710162C16923F4007321F003015C
:1022500041EA0C0121F0F00C39074FF400774CEA09
:10226000116107EA02221A43C16102622868C1694A
:1022700021F00C01C1612868C169A26811432BE0FB
:102280002868D4E90021E768036AD0F820C02CF45C
:10229000805CC0F820C0D0F81CC023F400532CF49C
:1022A000407C4CEA012121F4704C4FF6FF7101EAA9
:1022B00007314FF4005741EA0C0107EA02321A4392
:1022C000C16102622868C16921F44061C161286866
:1022D000C169A26841EA0221C16181E710B5040029
:1022E00003D094F83D0010B107E0012010BD00209C
:1022F00084F83C00204600F01EF8022084F83D00DF
:10230000211D206801F032FD012084F8460084F888
:102310003E0084F83F0084F8400084F8410084F8CF
:10232000420084F8430084F8440084F8450084F8AF
:102330003D00002010BD704770B50D0004464FF001
:10234000000607D0042D0AD0082D0DD00C2D10D07A
:1023500001262FE02068C16821F002010DE020680D
:10236000C16821F0040108E02068C16821F008017B
:1023700003E02068C16821F01001C16000222946F5
:10238000206801F039FD2068016A41F21112114202
:1023900007D1016A9210114203D1016821F00101B5
:1023A0000160012045B1042D09D0082D0AD004F8A0
:1023B000410F2071304670BD04F83E0FF9E704F874
:1023C0003F0FF6E704F8400FF3E770B504460068E6
:1023D00001694FF00005C943890715D4C168C94395
:1023E000890711D4E91E01610120207720688069E6
:1023F0008007204602D0FFF7ADFE04E000F0E2F8CF
:10240000204600F091F9257720680169C943490702
:1024100017D4C168C943490713D46FF0040101619F
:10242000022020772068806910F4407F204602D087
:10243000FFF790FE04E000F0C5F8204600F074F9C4
:10244000257720680169C943090716D4C168C943C3
:10245000090712D46FF00801016104202077206879
:10246000C0698007204602D0FFF774FE04E000F048
:10247000A9F8204600F058F9257720680169C9437A
:10248000C90617D4C168C943C90613D46FF0100137
:102490000161082020772068C06910F4407F204641
:1024A00002D0FFF757FE04E000F08CF8204600F061
:1024B0003BF9257720680169C943C90708D1C1687C
:1024C000C943C90704D1891E0161204600F088F97B
:1024D00020680169C943090609D4C168C9430906CE
:1024E00005D46FF0800101612046FFF732FB2068C0
:1024F0000169C943490609D4C168C943490605D4DD
:102500006FF040010161204600F0E1F920680169A7
:10251000C94389060BD4C168C943890607D46FF043
:10252000200101612046BDE87040FFF713BB70BD7C
:1025300000B585B0002100910191029103911B4BE0
:1025400002681B4802219A421BD1826942F0400274
:1025500082618069039100F0400004904FF4D04004
:10256000CDE9000169461348FEF72EFB1248416889
:1025700021F0C00141F0E06141F0C001416005B0CF
:1025800000BD0E4B9A42FAD1826942F00402826188
:102590008069039100F0040004900F20CDE9000150
:1025A00069460748FEF710FBE9E70000002C0140F0
:1025B000001002400018014000000140000C0040E3
:1025C00000080140704770B5044690F83C000026B2
:1025D0000D4601280FD0012084F83C006AB1042A7E
:1025E0001DD0082A2FD00C2A3FD00126002084F8C5
:1025F0003C00304670BD022070BD206801F01CFC1C
:102600002068816941F0080181612068816921F0B9
:1026100004018161206881692A69114311E0206801
:1026200001F03AFC2068816941F400618161206811
:10263000816921F480618161206881692A6941EAA8
:1026400002218161D2E7206801F05CFC2068C16949
:1026500041F00801C1612068C16921F00401C16134
:102660002068C1692A69114311E0206801F07EFCED
:102670002068C16941F40061C1612068C16921F429
:102680008061C1612068C1692A6941EA0221C16192
:10269000ACE710B5040003D094F83D0010B107E09A
:1026A000012010BD002084F83C00204600F01EF8F8
:1026B000022084F83D00211D206801F057FB012015
:1026C00084F8460084F83E0084F83F0084F8400017
:1026D00084F8410084F8420084F8430084F8440000
:1026E00084F8450084F83D00002010BD08B500685E
:1026F0000B49884212D10B48C16941F00801C16100
:10270000C069002200F00800009002213220FEF78C
:1027100065FDBDE808403220FEF752BD08BD00004F
:10272000000C0040001002407047000010B5044645
:10273000022249B104290ED0082913D094F841008F
:10274000012816D0012010BD94F83E000128F9D1CF
:1027500084F83E200FE094F83F000128F2D184F87D
:102760003F2008E094F840000128EBD184F8402095
:1027700001E084F841200122206801F03DFB13496B
:102780002068134A884201D0904203D1436C43F43D
:1027900000434364206888420DD090420BD0B0F1D2
:1027A000804F08D00B49884205D00B49884202D09F
:1027B0000A49884204D1816801F00701062903D043
:1027C000016841F001010160002010BD002C0140B2
:1027D000003401400004004000080040000C0040AC
:1027E0002DE9F84300682649884241D12548FEF783
:1027F000ADF82548FEF7AAF82448FEF7A7F82448C4
:10280000FEF7A4F8234D244C2A68201D216F02F006
:10281000B1FBFDF718FE1FFA80F81F486A6854F8EC
:10282000E81F7C3002F0A6FBFDF70DFE87B21A48C8
:10283000AA68F430A16F02F09DFBFDF704FE86B29A
:10284000EA681648D4F8F01002F094FBFDF7FBFD9F
:1028500083B242463146384601F0E8F90220009042
:10286000092342460521012001F04EF8BDE8F88316
:102870000B498842FAD1BDE8F84301F015BC0000CD
:10288000001000403001002078010020C00100202D
:10289000E002002024000020E4090020500B00206A
:1028A000001400400246002041B1042909D0082943
:1028B0000AD00C2901D11068006C70471068406B79
:1028C00070471068806B70471068C06B7047704726
:1028D00070477047F8B5016804460868CA684B69D4
:1028E00010F00F0F4FF0000559D003F0010602F46D
:1028F0009077374365D0C10705D0D10503D5616C0A
:1029000041F001016164410705D5D90703D0616C2D
:1029100041F002016164810705D5D90703D0616CDC
:1029200041F004016164010707D502F02001314341
:1029300003D0616C41F008016164616C00293AD0F8
:10294000800604D5900602D5204601F090FC206850
:102950004069616CC0F38010090700D460B3204661
:1029600001F05EFC20684069400621D520681430E3
:1029700050E8001F21F0400140E80012002AF5D184
:10298000E06BA8B16D494163E06BFEF773F8002876
:1029900011D0E06B416B01B0BDE8F0400847830601
:1029A0000FD593060DD52046BDE8F84001F05FBC79
:1029B0002046FFF78EFFF8BD2046FFF78AFF6564CB
:1029C000F8BD266B2023012E7CD1C6067AD5D6060B
:1029D00078D508684868009048694FF002064006BC
:1029E00040D5E16B086840680004000CE8D0A28D77
:1029F0008242E5D9E085886920282DD020680C30F6
:102A000050E8001F21F4807140E80012002AF5D13F
:102A10002068143050E8001F21F0010140E8001246
:102A2000002AF5D12068143050E8001F21F0400141
:102A300040E80012002AF5D184F84230256320686E
:102A40000C3050E8001F21F0100140E80012002A6D
:102A5000F5D1E06BFDF7EAFF6663A08DE18D401ACA
:102A600081B22AE0A08DE18D401A81B2E08D00286C
:102A7000A6D00029A4D022680C3252E8000F20F41E
:102A8000907042E80007002FF5D12068143050E81C
:102A9000002F22F0010240E80027002FF5D184F832
:102AA0004230256320680C3050E8002F22F01002DD
:102AB00040E80023002BF5D166632046FFF708FFAE
:102AC000F8BDFFE705062BD5150629D594F841007A
:102AD0002128F5D1A068B0F5805F01D12069B0B19F
:102AE000206A411C2162216800784860E08C401E09
:102AF0000004000CE084E3D12068C16821F080016B
:102B0000C1602068C16841F04001C160D8E7206A17
:102B10000088C0F308004860206A801C2062E5E756
:102B20004006CDD55006CBD5CA68204622F04002DB
:102B3000CA6084F8413000F014F9C1E7114200087E
:102B400070B5040004D094F84100002510B106E0EF
:102B5000012070BD84F84050204600F023F8242066
:102B600084F841002068C16821F40051C16020460A
:102B700001F0DEFB2068016921F4904101612068C9
:102B8000416921F02A0141612068C16841F4005186
:102B9000C1606564202084F8410084F842006563C8
:102BA000002070BD30B585B00024009401940294DB
:102BB0000394324D0368324802210322AB4227D1ED
:102BC000836943F480438361836903F480430493FE
:102BD000836943F00403836180692A4D00F0040097
:102BE00004900802CDE90001039269462846FDF7EA
:102BF000EBFF2815CDE90004694628460294FDF74D
:102C0000E3FF002211462520FEF7E8FA252030E0F8
:102C10001D4DAB422FD1C36943F40033C361C36977
:102C200003F400330493836943F0200383618069D4
:102C3000164D00F0200004902020CDE90001039201
:102C400069462846FDF7C0FF4020CDE900046946EB
:102C500028460294FDF7B8FF0D48416841F0E06155
:102C600041F008014160002211462620FEF7B6FA25
:102C70002620FEF7A5FA05B030BD0000003801405F
:102C800000100240000801400044004000140140D0
:102C90000000014010B500680649884209D1064984
:102CA0000120488002F068FABDE8104003A001F05E
:102CB000EDBB10BD004400401C0000204F4B2C72A7
:102CC00069676874210000002DE9F843044690F814
:102CD00041001F4616460D46202802D00220BDE8BE
:102CE000F8837DB176B100206064212084F8410032
:102CF000FEF770F8A6848046E684A068B0F5805F91
:102D000002D003E00120EAE7206910B12E46002539
:102D10000EE000260CE08021204601F065FBA0B902
:102D2000AEB116F8010B21684860E08C401EE084CB
:102D3000E08C43464FF0000200970028EBD14FF0A3
:102D40004001204601F050FB30B10320C7E735F8C1
:102D5000020BC0F30800E6E7202084F841000020C1
:102D6000BDE77047FEE701684A69D24352050FD4B8
:102D70006FF480624A61002140F8301F20224273C4
:102D80008173026942F004020261017301207047FD
:102D900000207047F8B50446C06A1E460D46174627
:102DA000082807D0012805D010F5803F02D0206BFD
:102DB000122804D12068016841F480710160134633
:102DC00000224FF001112046009600F05DF840B15E
:102DD00020680068C00502D54FF40070206403200D
:102DE000F8BD2069B0F5804F0ED00620216800EABA
:102DF000D51040F0F000086133463A460B492046B2
:102E000000F08AF878B902E005F0FE0000E0E8B2D0
:102E100021680861054933463A46891F204600F07B
:102E20007BF80028DCD00120F8BD0000080001007C
:102E300070B516460D4604461EE02046FFF793FF88
:102E400008B1012070BD681C16D0FDF7C3FF801BC0
:102E5000A84200D885B920684069C04340070BD517
:102E6000002044F8300F20216173A073216941F0E4
:102E7000200121612073E4E720684069C0434007D6
:102E8000DBD4002070BD00002DE9F04798461746BE
:102E90000D460446C1F30746DDF820902AE000BF46
:102EA000B8F1FF3F26D0FDF795FFA0EB09014145A2
:102EB00002D8B8F1000F1DD12068012E16D080690C
:102EC00025EA00000004000C12D00020B84211D105
:102ED000002044F8300F20216173A073216941F074
:102EE0002001216120730120BDE8F0874069E7E7F8
:102EF0000120EBE72068012E0AD0806925EA000056
:102F00000004000C06D00020B842C9D00020EBE736
:102F10004069F3E70120F7E72DE9F04798461646A8
:102F20000D4604464FF000094FF0200AC1F3074751
:102F300023E020684069C043400515D4206801683B
:102F400041F40071016021686FF480604861C4F849
:102F5000309084F83DA084F83E90216C41F004014B
:102F6000216484F83C9021E0701C06D0FDF732FF0C
:102F7000A0EB0800B04203D816B1012F1FD021E00A
:102F80002068012F15D0806925EA00000004000C9C
:102F900018D000BF44F8309F84F80DA084F80E903C
:102FA000216941F02001216184F80C900120BDE8E5
:102FB000F087406925EA00000004000CEAD120688F
:102FC000406901E02068806925EA00000004000CE7
:102FD000AFD1ECE770B516460D4604461EE020461C
:102FE000FFF7C1FE08B1012070BD681C16D0FDF7C7
:102FF000F1FE801BA84200D885B920684069C04313
:1030000000060BD5002044F8300F20216173A07317
:10301000216941F0200121612073E4E720684069C3
:10302000C0430006DBD4002070BD00002DE9F04F46
:1030300085B000244A480094019402940394816965
:1030400041F010018161816901F0100104918169F1
:1030500041F004018161816901F0040104918169F9
:1030600041F040018161816901F040010491816971
:1030700041F020018161816901F0200104918169A1
:1030800041F480718161816901F4807104918169E9
:1030900041F0080181618069DFF8C89000F0080004
:1030A000049000224FF4E0614846FDF78EFE0122B5
:1030B000D70339464846FDF788FEDFF8ACA04FF449
:1030C000FE78012241465046FDF77FFEDFF89CB0B6
:1030D000002202215846FDF778FEF8110125CDE9BE
:1030E00000050320CDE9024069464846FDF76CFD26
:1030F0004FF4C0600226CDE90005CDE902466946DD
:103100004846FDF761FDE802CDE9000469464846FE
:103110000294FDF759FD0097CDE9015469464846F0
:103120000395FDF751FDCDF80080CDE901546946C6
:1031300050460395FDF748FD4FF47850CDE9000463
:10314000694650460294FDF73FFDCDE90065CDE9A3
:10315000024669465846FDF737FD05B0BDE8F08FD9
:1031600000100240001401400020014000180140FE
:103170000D4810B50B4901600C49416000214FF426
:1031800080428160C0E9031241618161C1610162D5
:10319000FDF726FE002803D0BDE81040FDF7D3BBA5
:1031A00010BD0000005400403C000020A08601003B
:1031B000104810B50E4901604FF482714160002142
:1031C00002228160C0E903121202C0E9051238220E
:1031D000C2618022C0E9082181620A21C162FEF732
:1031E00013FB002803D0BDE81040FDF7ACBB10BDB9
:1031F000003001409000002010B59AB000241394D4
:10320000149415941694179418940F941094119480
:103210001C2168461294FCF7C0FF202107A8FCF788
:10322000BCFF3A48384901604721C0E9011441F226
:103230008731C0E903148021C0E90541FEF7F4FCA1
:1032400008B1FDF780FB4FF48050139013A92F486D
:10325000FEF7AEFD08B1FDF776FB2C48FFF73EF810
:1032600008B1FDF770FB2948FFF713FA08B1FDF725
:103270006AFB179417A925481894FEF797FC08B124
:10328000FDF761FB0120CDE90F40119400220FA949
:103290001E481294FEF790FF08B1FDF754FB602022
:1032A000CDE9000402940394049405940422694631
:1032B00016480694FFF787F908B1FDF744FB08228A
:1032C00069461248FFF77FF908B1FDF73CFB0C2275
:1032D00069460E48FFF777F908B1FDF734FB07940C
:1032E000089409944FF400500A94CDE90B4007A9C3
:1032F00006480E94FEF72FFC08B1FDF724FB0348A7
:10330000FFF716F91AB010BD002C0140E8000020AC
:1033100010B58CB024216846FCF73FFF0024154807
:1033200009944FF080410A94C0E900144FF6FF71F0
:10333000C0E902418021046181610120CDE90004DE
:10334000CDE902040494CDE9054007946946094893
:103350000894FEF79BFD08B1FDF7F5FA099409A959
:1033600004480A94FEF722FC002801D0FDF7EBFA8E
:103370000CB010BD3001002010B58CB0242168467F
:10338000FCF70BFF00241648099414490A94C0E97D
:1033900000144FF6FF71C0E9024180210461816190
:1033A0000120CDE90004CDE902040494CDE90540F3
:1033B000079469460A480894FEF768FD08B1FDF7CE
:1033C000C2FA099409A906480A94FEF7EFFB0028FF
:1033D00001D0FDF7B8FA0CB010BD000000040040A9
:1033E0007801002010B58CB024216846FCF7D5FE8A
:1033F00000241648099414490A94C0E900144FF6B1
:10340000FF71C0E902418021046181610120CDE9A1
:103410000004CDE902040494CDE90540079469460F
:103420000A480894FEF732FD08B1FDF78CFA0994BA
:1034300009A906480A94FEF7B9FB002801D0FDF758
:1034400082FA0CB010BD000000080040C00100204E
:1034500010B58AB0002407941C2168460894FCF734
:103460009CFE22482049C0E9001441F28831C0E99D
:103470000241802104618161FFF70BF908B1FDF77A
:1034800062FA079407A919480894FEF78FFB08B160
:10349000FDF759FA6020CDE9000402940022694644
:1034A00012480494FFF78FF808B1FDF74CFA042294
:1034B00069460E48FFF787F808B1FDF744FA08227D
:1034C00069460A48FFF77FF808B1FDF73CFA0C227D
:1034D00069460648FFF777F808B1FDF734FA034864
:1034E000FFF726F80AB010BD000C004008020020CB
:1034F0001CB500240E4800940C490194016063211E
:10350000C0E9011441F61F418461C160FEF78CFBE4
:1035100008B1FDF718FA0094694605480194FEF7D2
:1035200045FB002801D0FDF70EFA1CBD001000403D
:10353000500200201CB500240E4800940C49019450
:1035400001606321C0E9011441F61F418461C1603B
:10355000FEF76AFB08B1FDF7F6F9009469460548E5
:103560000194FEF723FB002801D0FDF7ECF91CBD08
:10357000001400409802002010B58CB02421684649
:10358000FCF70BFE00241748099415490A94C0E97A
:1035900000144FF6FF71C0E9024180210461C0E9C7
:1035A00005410320CDE900040120CDE90204049483
:1035B000CDE90540079469460A480894FEF766FC81
:1035C00008B1FDF7C0F9099409A906480A94FEF765
:1035D000EDFA002801D0FDF7B6F90CB010BD0000DF
:1035E00000340140E00200200C4810B50A49016097
:1035F0004FF416514160002181600C22C160C0E986
:1036000004128161C161FFF79BFA002803D0BDE875
:103610001040FDF798B910BD003801402803002084
:103620000C4810B50A4901604FF4E13141600021B6
:1036300081600C22C160C0E904128161C161FFF7A1
:103640007FFA002803D0BDE81040FDF77CB910BD1B
:103650000044004070030020FEE7000070B51A4EE1
:1036600000224FF480713046FDF7AFFB012280212C
:103670003046FDF7AAFB154D002428684463224616
:1036800040213046FDF7A1FB012220213046FDF705
:103690009CFB28688463002210213046FDF795FBCF
:1036A000012208213046FDF790FB2868C463002200
:1036B00004213046FDF789FB0122D1030448FDF7C0
:1036C00084FB2868046470BD0020014008020020CB
:1036D00000140140FEE7000030B4094C002202EB68
:1036E0008213002104EB43035854491C89B28229F8
:1036F000FAD3521C92B2082AF1D330BC00F060B861
:10370000D403002010B54FF4FA70FDF74BFAAE2049
:1037100000F0B3FE202000F0B0FE102000F0ADFE5F
:10372000B02000F0AAFE002000F0A7FE102000F05C
:10373000A4FEC82000F0A1FE402000F09EFE8120E3
:1037400000F09BFEFF2000F098FEA12000F095FE07
:10375000A62000F092FEA82000F08FFE3F2000F08F
:103760008CFEA42000F089FED32000F086FE00200D
:1037700000F083FED52000F080FEF02000F07DFEFA
:10378000D92000F07AFE222000F077FEDA2000F047
:1037900074FE122000F071FEDB2000F06EFE20208F
:1037A00000F06BFE8D2000F068FE142000F065FE36
:1037B000AF2000F062FEBDE810400020FFF78CBF94
:1037C0002DE9F0410F4F002404F1B000C0B200F029
:1037D00054FE002000F051FE102000F04EFE04EBDD
:1037E0008410002507EB4006705D00F04AFE6D1C5A
:1037F000ADB2822DF8D3641CA4B2082CE4D3BDE88A
:10380000F0810000D403002010B50446B031C8B2E6
:1038100000F033FE102040EA141000F02EFE04F0F9
:103820000F00BDE8104040F0010000F026BE00008F
:103830002DE9F047002591468A460446012B22D007
:10384000DFF8BC80022B24D155E02038C7B27E2C93
:1038500004D90AF10100002400F0FF0A5146204675
:10386000FFF7D2FF07EB4700002608EB4007B85DE3
:1038700000F007FE761CF6B2062EF8D3A41D6D1CD0
:10388000E4B2EDB201E0DFF87C8019F80500002811
:10389000DBD1BDE8F0872038C7B2782C04D90AF113
:1038A0000100002400F0FF0A51462046FFF7ACFF5C
:1038B0005FF0000606EB071118F8010000F0E1FDCB
:1038C000761CF6B2082EF5D30AF10100C1B22046EB
:1038D000FFF79AFF5FF0000606EB071101EB080007
:1038E000007A00F0CEFD761CF6B2082EF4D3083430
:1038F0006D1CE4B2EDB219F805000028CBD1C8E781
:10390000665500083E5300082DE9F05F04460A980A
:1039100000261D4693468A46012827D0DFF8C89026
:10392000022826D15BE000BF1BF82600103000F013
:10393000FF087E2C04D90AF10100002400F0FF0AE0
:1039400051462046FFF760FF284908EB4800002752
:1039500001EB400818F8070000F093FD7F1CFFB250
:10396000062FF7D3A41D761CE4B2F6B26D1EEDB29D
:10397000DAD2BDE8F09F00BF1BF82600103000F03F
:10398000FF08782C04D90AF10100002400F0FF0A96
:1039900051462046FFF738FF5FF0000707EB08119C
:1039A00019F8010000F06DFD7F1CFFB2082FF5D360
:1039B0000AF10100C1B22046FFF726FF5FF00007C1
:1039C00007EB081101EB0900007A00F05AFD7F1C9B
:1039D000FFB2082FF4D30834761CE4B2F6B26D1EA1
:1039E000EDB2C9D2C5E70000665500083E53000895
:1039F000FEB508AC94E8E000084C4466084C8466C8
:103A0000002484634463C463046444648464C464BD
:103A10008DE8E00001F09AFBFEBD00004D5100086A
:103A2000655100082DE9F843DFF880904FF4807865
:103A3000002241464846FDF7C8F94FF6FF740123BE
:103A40001B4A1C491C480094FDF778FF0A2001F02E
:103A5000A3F9174D174E01236A1C711C16480094D8
:103A6000FDF76CFF0A2001F097F90123AA1CB11C95
:103A700011480094FDF762FF0A2001F08DF9032739
:103A8000EA190123B11C0C480094FDF757FF0A20E6
:103A900001F082F97F1CFFB2092FF1D3414648465D
:103AA000BDE8F8430122FDF790B900000014014081
:103AB000E4070020200000209000002070B51B4883
:103AC0004179FF2930D28279FF2A2DD2C0798039FD
:103AD0008038C0EBC00000EB800085B2C1EBC100B4
:103AE00000EB800080B22844FCF7A8FC0F4C06468F
:103AF000203420672846FCF7A1FCC4F8E800C4F88D
:103B0000600105463046C4F8D861FCF79CFC0646C7
:103B100084B22846FCF797FC82B281B2B0B2234649
:103B2000BDE8704000F082B870BD0000E4070020DE
:103B3000704700000148FDF7F7BD0000900000202D
:103B400010B5406A0021C187C186FDF7EBFD10BDAD
:103B500038B50B46009204460022802100F008F898
:103B6000002804D0606D40F020006065032038BD5F
:103B70002DE9F8431E46914688460446089DFDF708
:103B800029F9401B351AFDF725F907462548006835
:103B9000C0F3CB30684338E0701C37D0FDF71AF91A
:103BA000C01BA84203D215B1009860B32CE0206876
:103BB000416821F0E00141606068B0F5827F0BD17F
:103BC000A068B0F5004F02D0B0F5806F04D1206836
:103BD000016821F040010160A06AB0F5005F09D1E1
:103BE0002068016821F4005101602068016841F4F7
:103BF00000510160012084F85100002084F8500039
:103C00000320BDE8F8830025401E009020688168ED
:103C100038EA010004D000214945BDD10020F0E779
:103C20000121F9E734000020704700002DE9F0473A
:103C300015461D4F0E468046012299461102384610
:103C4000FDF7C3F8002280213846FDF7BEF8174C77
:103C50002068C0F83480002240213846FDF7B5F8CE
:103C6000012220213846FDF7B0F820688663002243
:103C700010213846FDF7A9F8012208213846FDF742
:103C8000A4F82068C563012204213846FDF79DF899
:103C900000224FF400410648FDF797F82168C1F86B
:103CA0004090BDE8F087000000200140080200209D
:103CB00000140140FDF72CBA30B58FB028216846BA
:103CC000FCF76BFA14210AA8FCF767FA0121080433
:103CD000CDE900100024029402250491CDE907509B
:103CE0004FF4E01009906846FDF78CFB08B172B6FE
:103CF000FEE70F20CDE90A054FF48060CDE90C40C6
:103D000002210AA80E94FDF79BFA002801D072B692
:103D1000FEE70FB030BD70470148FEF756BB00000C
:103D2000300100200148FEF750BB00007801002060
:103D30000148FEF74ABB0000C00100200148FEF721
:103D400044BB0000080200200148FEF73EBB000013
:103D5000500200200148FEF738BB00009802002006
:103D60000148FEF732BB0000E0020020F0B5026817
:103D70001C4B1D4D1D4E1E4F1E4C4FF0804C98424B
:103D800009D0A04207D0604505D0A84203D0B04278
:103D900001D0B84204D122F0700E4A6842EA0E0205
:103DA000984209D0A04207D0604505D0A84203D070
:103DB000B04201D0B84203D122F44075CA682A4308
:103DC0004D6922F080022A4302608A68C2620A6852
:103DD0008262984201D0A04201D1096901630121A8
:103DE0004161F0BD002C014000040040000800408B
:103DF000000C00400034014010B501F01F03012108
:103E0000046A99408C430462016A9A40114301623A
:103E100010BD10B5846842EA032224F47F440A43AB
:103E20002243826010BD826822F070020A4342F091
:103E30000701816070470000F0B5036A026A22F052
:103E40000102026242688469124E24F073050C6814
:103E50002C4323F002058B682B430D4DA84201D063
:103E6000B04205D123F00807CB683B4323F004039D
:103E7000A84201D0B04205D14D6922F440721543E9
:103E80008A692A4342608461496841630362F0BDE4
:103E9000002C014000340140F0B5026A036A23F0AF
:103EA00010030362436884690D6824F4E64444EA1D
:103EB00005248D6822F0200242EA05120F4D104EB3
:103EC000A84201D0B04206D1CF6822F0800242EA77
:103ED000071222F04002A84201D0B04207D14D693A
:103EE00023F4406343EA85038D6943EA8503436015
:103EF0008461496881630262F0BD0000002C0140CA
:103F000000340140F0B5026A036A23F4807303624F
:103F10004368C46922F4007224F073050C68124EE1
:103F20002C438D6842EA05220E4DA84201D0B042D2
:103F300006D1CF6822F4006242EA072222F48062AE
:103F4000A84201D0B04207D14D6923F4405343EA5F
:103F500005138D6943EA05134360C4614968C16371
:103F60000262F0BD002C01400034014030B5046A0B
:103F7000026A22F4805202624268C3690D6823F427
:103F8000E64343EA05238D6824F4005444EA0534EB
:103F9000084DA84202D0084DA84204D14D6922F430
:103FA000804242EA85124260C3614968016404624A
:103FB00030BD0000002C01400034014010B5036A00
:103FC000046A24F001040462846924F0F00444EAE1
:103FD000021423F00A020A438461026210BD000049
:103FE00070B5056A046A24F0010404628469124E03
:103FF000B0420ED0114EB0420BD0B0F1804F08D07D
:104000000F4EB04205D00F4EB04202D00E4EB0421D
:1040100003D124F00304144301E044F001041A071F
:1040200024F0F00444EA126225F00A0301F00A01C8
:1040300019438261016270BD002C014000340140CF
:104040000004004000080040000C004010B5036A66
:10405000046A24F010040462846923F0A00324F4A9
:10406000704444EA023243EA01118261016210BDE8
:1040700030B5046A056A25F010050562856925F4E6
:10408000407545EA022222F470454FF6FF7202EABB
:10409000033224F0A0032A43A02404EA01111943A7
:1040A0008261016230BD00002DE9F05FDFF85881C8
:1040B0004FF4005739464046FCF782FE4FF4FA654C
:1040C000524E6C1040F6B83A012808D04FF480598F
:1040D00049464046FCF774FE012811D015E0B94668
:1040E000574635803946204623463A46FFF79EFD1F
:1040F00049464046FCF764FE0028F2D1BDE8F09F37
:1041000039464046FCF75CFE38B14FF4006140464A
:10411000FCF756FE012817D021E0CA46B9464746AB
:1041200020463480294603462A46FFF77FFD514644
:104130003846FCF745FE0028F2D149463846FCF7E0
:104140003FFE0128ECD1D9E749464046FCF738FE4E
:1041500028B94FF400614046FCF732FE40B14FF4FD
:10416000806B59464046FCF72BFE012808D00DE035
:1041700023462046BDE8F05F1A461146FFF756BDBC
:104180004FF400614046FCF71BFE30B3D946594658
:1041900047464046FCF714FE0028AFD14FF4007BA1
:1041A00059463846FCF70CFE0128A7D1A8465546CB
:1041B000A6F8008028462B4621462246FFF736FD0A
:1041C00049463846FCF7FCFD0128F1D159463846EE
:1041D000FCF7F6FD0028EBD190E7CA46B946474602
:1041E0002146348028462B460A46FFF71FFD5146DC
:1041F0003846FCF7E5FD0028F2D149463846FCF781
:10420000DFFD0128ECD179E7002001400C000020FF
:1042100010B5406A0021C185C184FEF75AFB10BD6C
:1042200001680C3151E8002F22F4907241E800231C
:10423000002BF5D10168143151E8002F22F0010262
:1042400041E80023002BF5D1016B012909D1016858
:104250000C3151E8002F22F0100241E80023002B1E
:10426000F5D1202180F8421000210163704708B584
:1042700090F84210222901D0022008BD82684FF434
:1042800080539A4201D1016921B1816A9A421BD0BF
:104290004AB10AE00268816A5268C2F308020A80E1
:1042A000816A891C08E0026972B10268526802F0F2
:1042B0007F020A70816A491C8162C18D491E09040E
:1042C000090CC18503D01BE002685268F1E7016860
:1042D000CA6822F02002CA600168CA6822F48072AB
:1042E000CA6001684A6922F001024A61202180F80F
:1042F000421000214163026B012A03D0FEF7CAFC81
:10430000002008BD016301680C3151E8002F22F044
:10431000100241E80023002BF5D101680A68D2069B
:1043200002D50A6849680091818DFEF7D1FAE7E766
:1043300070B5044600680169E26821F440511143F8
:1043400001612169A0680843616908432168CA685E
:1043500041F20C639A430243CA6020684169A26932
:1043600021F44071114341611E492068884202D105
:10437000FDF712F801E0FCF7FFFF00EBC00101EBD5
:104380000012606864218000B2FBF0F3B3FBF1F32C
:104390006FF018067343B2FBF0F5B2FBF0F605EBD5
:1043A0008305322303EB0515B5FBF1F5B6FBF1F6FA
:1043B00005F0F00505EB0615B2FBF0F6B2FBF0F0E8
:1043C000B0FBF1F06FF01802504306EB800003EBF6
:1043D0000010B0FBF1F0216800F00F002844886065
:1043E00070BD0000003801402DE9F04198461746A5
:1043F0000E460446069D27E0681C25D02DB1FCF72B
:10440000E9FCA0EB0800A8421ED920680C3050E857
:10441000001F21F4D07140E80012002AF5D1206875
:10442000143050E8001F21F0010140E80012002A7A
:10443000F5D1202084F8410084F84200002084F85F
:1044400040000320BDE8F0812068006836EA0000E3
:1044500004D00020B842CFD00020F3E70120F9E7D4
:104460000148FEF737BA0000280300200148FEF794
:1044700031BA000070030020FEE701460020FCF77F
:1044800037BE01464020FCF733BE00000FB4054B99
:1044900010B503A9044A029800F0EAF810BC5DF8D0
:1044A00014FB0000B54D0008380000200907090E74
:1044B000002804DB00F1E02080F80014704700F0D1
:1044C0000F0000F1E02080F8141D704702E008C8DA
:1044D000121F08C1002AFAD170477047002001E07E
:1044E00001C1121F002AFBD1704700002DE9FF5FB8
:1044F00082B00021DDE90430020DDDF840B0034355
:1045000018D044F61050A2F2FF324243151411980D
:1045100001281FD0A5EB0B00401C5FEA000A4FF0FA
:1045200000064E4FDFF83891B046504615D5CAF117
:10453000000413E0119801244AA3012801D16FEA75
:104540000B010298119AC0E90031C0E9024206B09D
:10455000BDE8F09FCBF10000DFE704460021404AB0
:10456000491842EB0450CDE9001012E0E00707D0F3
:1045700032463B4640464946FBF7EEFE80468946BA
:1045800032463B4610461946FBF7E6FE06460F4606
:104590006410002CEAD1DDE90401DDE90023BAF161
:1045A000000F06DAFBF7D8FE42464B46FBF7D4FE77
:1045B00005E0FCF7F3F842464B46FCF7EFF80446FB
:1045C0000E460022284BFCF771F903D84FF0FF305C
:1045D000014607E00022254B20463146FCF737F81C
:1045E000FCF74BF9102409E0002C0ADB0A22002317
:1045F000FBF768FF039B30321A55641E50EA010234
:10460000F2D1641C039AC4F111031444119A012AD3
:1046100003D0012208430DD10AE0084304D0002052
:104620004FF0110B119072E7A3EB0B056D1E0DE01F
:104630005B4504DD4FF0000205F1010504E003DAFB
:104640004FF00002A5F10105002AECD00298119963
:10465000C0E90231C0E9004579E7000000001440DC
:104660000000F03F300000000000F0430000E03F99
:104670002DE9FF4F95B09A46884606460025EEE1A3
:10468000252877D100242746F94A0121039400E028
:10469000044316F8013F203B01FA03F01042F7D122
:1046A00030782A2811D06FF02F033078A0F1300233
:1046B000092A16D8039A44F0020402EB820203EBA3
:1046C00042021044761C0390EFE758F8042B039243
:1046D000002A03DA504244F40054039044F00204E8
:1046E000761C30782E2816D116F8010F44F00404F9
:1046F0002A280DD06FF02F023078A0F13003092B5B
:1047000009D807EB870302EB4303C718761CF3E7CE
:1047100058F8047B761C30786C280FD006DC4C28C7
:1047200017D068280DD06A2814D104E0742810D05E
:104730007A280FD10DE044F400140AE044F4801408
:1047400001E044F440147278824202D104F58014EE
:10475000761C761C307866280BD013DC582877D06E
:1047600009DC002875D04528F6D04628F4D0472823
:104770001AD193E118E0632835D0642879D06528F0
:1047800012D18BE1702873D008DC6728F1D069283A
:104790006FD06E280DD06F2806D1ACE073282CD0D6
:1047A000752874D0782853D05246179990476D1CBD
:1047B00054E1C4F30250022809D003280DD0D8F8E0
:1047C000001004280DD00D6008F1040846E1D8F867
:1047D0000010EA17C1E90052F6E7D8F800100D8082
:1047E000F2E70D70F0E718F8041B8DF800100020B8
:1047F0008DF80100EB46012003E058F804BB4FF0B0
:10480000FF3061074FF0000102D40DE009F1010112
:104810008946B9420FDA8145F8DB1BF809100029F7
:10482000F4D108E009F1010189468142FADB1BF865
:1048300009100029F6D103985346A0EB0907214639
:104840003846179A00F080FA284400EB090507E083
:1048500044E008E10DE01BF8010B52461799904720
:10486000B9F10109F7D2534621463846179AF2E0CA
:1048700039E00A21C4F302524FF0000B0091022AE2
:1048800006D058F8040BC117032A09D00AE023E028
:1048900008F1070020F00702F2E80201904605E067
:1048A00000B2C117042A01D140B2C117002906DAAB
:1048B0000A460021404261EB02012D2202E022055E
:1048C00004D52B228DF80420012203E0E20701D059
:1048D0002022F7E7914657E00A2100E010214FF02F
:1048E000000B00910BE010214FF0000B44F004048A
:1048F0000827009103E008204FF0000B0090C4F35C
:104900000252022A05D058F8040B0021032A08D0CD
:1049100008E008F1070020F00702F2E802019046E3
:1049200003E080B2042A00D1C0B24FF00009220790
:104930002AD53278702A07D0DDF800C08CF0100C30
:104940005CEA0B0C05D00EE040228DF80420012219
:1049500008E050EA010306D030238DF804308DF8CA
:10496000052002229146009B83F0080353EA0B03C3
:104970000AD150EA010201D1620705D530228DF833
:1049800004204FF001097F1E3278582A04D039A242
:104990000C920CAA02920BE03BA2F9E75B46009A4C
:1049A000FBF790FD0C9B9B5C029A521E02921370C7
:1049B00050EA0102F2D1029804A9081A00F1200B72
:1049C000600702D524F4803400E001275F4502DD52
:1049D000A7EB0B0000E0002000EB0B010090039818
:1049E0004944401A0390E00306D453462146179ADF
:1049F000039800F0A9F90544002706E001A85246F3
:104A0000C05D179990476D1C7F1C4F45F6DBE00396
:104A10000CD553462146179A039800F095F90544A2
:104A200004E030205246179990476D1C0099481EAB
:104A300000900029F5DC08E00298029952460078BF
:104A4000491C0291179990476D1CBBF10001ABF115
:104A5000010BF1DC5BE100F065F90544761C307870
:104A600000287FF40DAE19B02846BDE8F08F000095
:104A70000928010030313233343536373839616234
:104A800063646566000000003031323334353637F8
:104A9000383941424344454600000000600700D4D5
:104AA000062708F1070020F00700F0E802238046FF
:104AB00003F0004C5FEA0C0001D097A009E020054C
:104AC00001D596A005E0E00701D095A001E0AFF286
:104AD0004C001390307823F0004365280CD006DC9E
:104AE000452809D046281DD047287FD13BE06628BD
:104AF00018D067287AD136E00021112F01DB112070
:104B000000E0781CCDE9000104A90CA8FFF7EEFC39
:104B1000DDE90D010C9A4FF0000B07F1010910922D
:104B200000914EE04FF000400097CDE9011004A93C
:104B30000CA8FFF7DBFCDDE90D020C9B0F994FF091
:104B4000000B91461093009211B9791C00EB0109FA
:104B5000B7EB090003D4C0F1FF3B07F10109A9EB52
:104B60000700019042E0012F00DA01270021112FF8
:104B700001DD112000E03846CDE9000104A90CA8B0
:104B8000FFF7B4FCDDE90D010C9A00914FF0000B2A
:104B9000B946109221070FD4009A4A4503DA91468C
:104BA00001E0A9F10109B9F1010F05DD109AA9F1A0
:104BB0000101515C3029F4D0B84202DA10F1040F3F
:104BC00003DA0121CDE9011010E0002803DC834461
:104BD000A9EB000102E0411C494500DD8946A0EB3C
:104BE0000B00401C01904FF000400290200705D4BC
:104BF0000198484502DB4FF0FF30019000208DF80E
:104C00004B0002980DF14B07B0F1004F25D0022068
:104C10000C902B200D90029800280CDA4042029054
:104C20002D200D9007E00A210298FBF735FC30316A
:104C3000029007F8011D0C99481E0C900029F2DC27
:104C400002980028EFD1791E0D980870307800F096
:104C5000200040F0450007F8020D11A8C01BC01D40
:104C600002901398007800B1012000EB090101982F
:104C700001EBE071029801440398401A401E039032
:104C8000E00306D453462146179A039800F05CF8D7
:104C900005441398007818B15246179990476D1C37
:104CA000E00323D553462146179A039800F04CF8A9
:104CB00005441BE0BBF1000F07DB0098584504DDFD
:104CC0001098179910F80B0001E017993020524600
:104CD000904701980BF1010B401E05F10105019071
:104CE00004D12E205246179990476D1CB9F100014E
:104CF000A9F10109DEDC05E017F8010B524617990E
:104D000090476D1C0299481E02900029F4DC53461E
:104D10002146179A03989EE62D0000002B00000004
:104D2000200000002DE9F041044600251E461746EC
:104D3000880404D405E039462020B0476D1C641E69
:104D4000F9D52846BDE8F0812DE9F041044600255B
:104D50001E469046C80301D5302700E0202788046E
:104D600004D505E041463846B0476D1C641EF9D5B0
:104D70002846BDE8F08170B504460E4681F0004536
:104D80000068FBF77FFB00D2266028462168FBF70E
:104D900079FB00D2256070BD10B50446FCF7E6FA39
:104DA0000349B0FBF1F16143491EFDD210BD000083
:104DB00000093D0013B54FF6FF7301226946024812
:104DC000FDF782FF00981CBD7003002070B51B4EDC
:104DD00000224FF480713046FBF7F7FF012280215B
:104DE0003046FBF7F2FF164D4FF47A6428684463AF
:104DF000012240213046FBF7E8FF00222021304607
:104E0000FBF7E3FF28688463012210213046FBF79B
:104E1000DCFF002208213046FBF7D7FF2868C46377
:104E2000002204213046FBF7D0FF0122D1030548C0
:104E3000FBF7CBFF2868046470BD00000020014030
:104E40000802002000140140FCF76AF9FEF7CCFBD1
:104E5000FEF7E6FB3948FDF773FEFEF72DFFFEF780
:104E6000E5F8FEF7C9F9FEF753FAFEF785FAFEF703
:104E7000B9FAFEF79DF9FEF7EBFAFEF77DFBFEF7B8
:104E8000B3FBFEF7CDFBFEF733FBFEF771F9FEF740
:104E900051FBFEF737FC08212948FDF747FC0421A8
:104EA0002748FDF743FC0C212548FDF73FFC24482B
:104EB000FCF748FF3C212348FDF704F92148FCF7A3
:104EC00041FF3C212048FDF7FDF81F48FCF73AFF61
:104ED0003C211E48FDF7F6F81C48FCF733FF3C2147
:104EE0001B48FDF7EFF81A48FCF72CFF1948FCF7B0
:104EF00029FF00211748FDF719FC04211548FDF78B
:104F000015FC08211348FDF711FC0C211148FDF791
:104F10000DFC00F029F800F0D9F8012102230EA2BF
:104F20000846FEF785FCFEF77DFD00BFFEF77AFD23
:104F3000FEF7C4FD0A20FBF735FEF7E770030020FB
:104F4000E80000203001002078010020C00100208E
:104F5000E002002008020020626C7565746F6F74B7
:104F6000685F6D6F6465000000231A461946184695
:104F7000FEF75CBE2DE9F041426104460162104635
:104F8000FBF768F9E062216D4FF4000511F0FF4F67
:104F900006D0A84201DA80F00040FBF773FA0BD389
:104FA000616D11F0FF4F0AD0E06AA84201DA80F08B
:104FB0000040FBF75DFA02D20020BDE8F081A06D51
:104FC00004F13405032802D0042830D06AE0E66AF0
:104FD00020683146FBF744F9206331466068FBF7EF
:104FE0003FF9616BFBF7E4F860633046A16AFBF7B9
:104FF00031F9A168FBF734F9A063206EFBF71EFAC4
:1050000001462846FFF7B7FED4E90C01FBF7D0F8BC
:10501000A16BFBF7CDF8E063E06DFBF70FFA0146FB
:1050200004F13C00FFF7A7FEE06B20643AE0D4E90E
:105030000A7639463046FBF70DF92168FBF710F97F
:10504000206331466068FBF70BF960630121384645
:10505000FBF776F93146FBF700F9616AFBF7A8F830
:10506000A168FBF7FDF8A063206EFBF7E7F90146A6
:105070002846FFF780FED4E90C01FBF799F8A16BF5
:10508000FBF796F801466064E06CFBF791F8A064CA
:10509000E06DFBF7D3F9014604F14800FFF76BFE22
:1050A000A06CE064A06A6062E06AA062E069A0614E
:1050B000206AE0612069E06060692061A06D0328DA
:1050C00001D0A06C79E7E06B77E70000FEB51C48E3
:1050D000012100240160022181670321C0F8F01042
:1050E0000421C0F86811174DCDE900544FF49676AD
:1050F0004FF47A6733463A460321001D0294FEF7C7
:1051000077FCCDE900540E4833463A4603217C3003
:105110000294FEF76DFCCDE90054094833463A4647
:105120000321F4300294FEF763FCCDE900543346CA
:105130003A46032104480294FEF75AFCFEBD0000E3
:10514000E40900200000FA43500B002070B50DF177
:10515000100C9CE8700000F1580C8CE80E0080E800
:10516000700070BD80E80E00704740F6B83003460E
:105170001A461146FEF75ABD144810B54188002959
:1051800023D000214180007855280BD04C2810D026
:10519000522812D0532814D0442816D1BDE810400C
:1051A000FFF714BEFFF7E1FFBDE8104008A0FFF7CE
:1051B0006DB9BDE8104000F04BB8BDE8104000F0FC
:1051C00009B8BDE81040FEF749BA10BD1C00002028
:1051D0005500000070B51B4E00224FF48071304620
:1051E000FBF7F3FD012280213046FBF7EEFD164D63
:1051F0004FF47A6428684463002240213046FBF76C
:10520000E4FD012220213046FBF7DFFD286884639E
:10521000002210213046FBF7D8FD0122082130463C
:10522000FBF7D3FD2868C463002204213046FBF756
:10523000CCFD0122D1030548FBF7C7FD28680464B3
:1052400070BD000000200140080200200014014051
:1052500070B51B4E012211023046FBF7B6FD00224D
:1052600080213046FBF7B1FD164D4FF47A64286873
:105270004463012240213046FBF7A7FD0022202194
:105280003046FBF7A2FD28688463012210213046D6
:10529000FBF79BFD002208213046FBF796FD2868AE
:1052A000C463012204213046FBF78FFD00224FF436
:1052B00000410548FBF789FD2868046470BD0000C3
:1052C00000200140080200200014014001020203F6
:1052D0000405060708090A0B0C0D0E0F10101060CC
:1052E000028C0000FE9292929292FE000000040452
:1052F0007E01407E42427E427E42427E400000006D
:10530000FC242424FC252624FC24242404004030EE
:105310008F80844C55252525554C80808000106059
:10532000028C00FE929292929292FE00000004047F
:105330007E014448507F40407F5048444000000078
:10534000000000000000002F000000000700070020
:1053500000147F147F1400242A7F2A12006264083C
:1053600013230036495522500000050300000000B9
:105370001C224100000041221C000014083E0814B9
:105380000008083E0808000000A0600000080808A7
:105390000808000060600000002010080402003EC1
:1053A0005149453E0000427F40000042615149465C
:1053B000002141454B31001814127F10002745454C
:1053C0004539003C4A49493000017109050300365E
:1053D0004949493600064949291E00003636000071
:1053E0000000563600000008142241000014141476
:1053F0001414000041221408000201510906003271
:105400004959513E007C1211127C007F49494936AE
:10541000003E41414122007F4141221C007F494919
:105420004941007F09090901003E4149497A007F4D
:105430000808087F0000417F4100002040413F01F3
:10544000007F08142241007F40404040007F020C52
:10545000027F007F0408107F003E4141413E007FF3
:1054600009090906003E4151215E007F09192946BC
:105470000046494949310001017F0101003F404098
:10548000403F001F2040201F003F4038403F006346
:105490001408146300070870080700615149454368
:1054A00000007F41410000552A552A550000414126
:1054B0007F00000402010204004040404040000020
:1054C00001020400002054545478007F48444438BA
:1054D00000384444442000384444487F0038545441
:1054E000541800087E0901020018A4A4A47C007FBF
:1054F000080404780000447D4000004080847D0062
:10550000007F102844000000417F4000007C041808
:105510000478007C0804047800384444443800FCD3
:10552000242424180018242418FC007C08040408EF
:1055300000485454542000043F444020003C404064
:10554000207C001C2040201C003C4030403C00449B
:1055500028102844001CA0A0A07C004464544C44A3
:1055600014141414141400000000000000000000C3
:10557000000000000000000000F800000000000033
:1055800000333000000000100C06100C0600000074
:1055900000000000000040C07840C0784000043F98
:1055A00004043F040400007088FC08300000001868
:1055B00020FF211E0000F008F000E018000000218C
:1055C0001C031E211E0000F00888700000001E2130
:1055D00023241927211010160E00000000000000DF
:1055E000000000000000000000E0180402000000BD
:1055F00000071820400000020418E00000000040EE
:10560000201807000000404080F080404000020267
:10561000010F01020200000000F000000000010183
:10562000011F01010100000000000000000080B027
:1056300070000000000000000000000000000001F9
:105640000101010101010000000000000000003024
:1056500030000000000000000000806018040060BE
:1056600018060100000000E010080810E000000F1C
:10567000102020100F00001010F800000000002083
:10568000203F2020000000700808088870000030CB
:105690002824222130000030088888483000001873
:1056A000202020110E000000C02010F8000000078C
:1056B0000424243F240000F8088888080800001902
:1056C000212020110E0000E0108888180000000F33
:1056D000112020110E0000380808C838080000000A
:1056E000003F000000000070880808887000001C5F
:1056F000222121221C0000E010080810E000000018
:10570000312222110F00000000C0C0000000000084
:1057100000303000000000000080000000000000A9
:1057200080600000000000008040201008000001A0
:105730000204081020004040404040404000040463
:10574000040404040400000810204080000000202D
:10575000100804020100007048080808F00000006A
:10576000003036010000C030C828E810E0000718FB
:10577000272423140B000000C038E0000000203C68
:1057800023020227382008F8888888700000203F0C
:10579000202020110E00C030080808083800071823
:1057A00020202010080008F808080810E000203F1A
:1057B000202020100F0008F88888E8081000203FFB
:1057C00020202320180008F88888E8081000203FCF
:1057D000200003000000C030080808380000071847
:1057E0002020221E020008F808000008F808203FC8
:1057F000210101213F20000808F8080800000020CE
:10580000203F2020000000000808F8080800C080A1
:1058100080807F00000008F888C028180800203F1A
:1058200020012638200008F8080000000000203F72
:1058300020202020300008F8F800F8F80800203F69
:10584000003F003F200008F830C00008F808203F63
:10585000200007183F00E01008080810E0000F10B3
:10586000202020100F0008F808080808F000203F4A
:10587000210101010000E01008080810E0000F18E5
:10588000242438504F0008F8888888887000203F0A
:105890002000030C30200070880808083800003809
:1058A000202121221C00180808F808081800000010
:1058B000203F2000000008F808000008F808001F3A
:1058C000202020201F000878880000C83808000029
:1058D00007380E010000F80800F80008F800033C43
:1058E0000700073C0300081868808068180820300B
:1058F0002C03032C30200838C800C83808000000EA
:10590000203F2000000010080808C8380800203890
:10591000262120201800000000FE020202000000E4
:10592000007F40404000000C30C00000000000003C
:1059300000010638C00000020202FE000000004024
:1059400040407F000000000004020202040000004A
:105950000000000000000000000000000000808047
:10596000808080808080000202040000000000002F
:10597000000000000000000080808080000000190E
:10598000242222223F2008F8008080000000003FEF
:10599000112020110E000000008080800000000E09
:1059A000112020201100000000808088F800000EE7
:1059B000112020103F200000808080800000001F08
:1059C000222222221300008080F08888881800207C
:1059D000203F202000000000808080808000006B3D
:1059E00094949493600008F8008080800000203F29
:1059F000210000203F200080989800000000002037
:105A0000203F20200000000000809898000000C087
:105A10008080807F000008F8000080808000203FA8
:105A200024022D302000000808F8000000000020AB
:105A3000203F202000008080808080808000203FE8
:105A400020003F20003F8080008080800000203FB9
:105A5000210000203F200000808080800000001F87
:105A6000202020201F00808000808000000080FF18
:105A7000A12020110E000000008080808000000E18
:105A8000112020A0FF808080800080808000202066
:105A90003F212000010000008080808080000033D2
:105AA000242424241900008080E08080000000006D
:105AB000001F202000008080000000808000001F68
:105AC000202020103F208080800000808080000106
:105AD0000E300806010080800080008080800F303A
